{
  "_format": "hh-sol-artifact-1",
  "contractName": "CrowdFunding",
  "sourceName": "contracts/CrowdFunding.sol",
  "abi": [
    {
      "inputs": [
        {
          "internalType": "uint256",
          "name": "",
          "type": "uint256"
        }
      ],
      "name": "compaigns",
      "outputs": [
        {
          "internalType": "address",
          "name": "owner",
          "type": "address"
        },
        {
          "internalType": "string",
          "name": "title",
          "type": "string"
        },
        {
          "internalType": "string",
          "name": "description",
          "type": "string"
        },
        {
          "internalType": "uint256",
          "name": "target",
          "type": "uint256"
        },
        {
          "internalType": "uint256",
          "name": "deadline",
          "type": "uint256"
        },
        {
          "internalType": "uint256",
          "name": "amountCollected",
          "type": "uint256"
        },
        {
          "internalType": "string",
          "name": "image",
          "type": "string"
        }
      ],
      "stateMutability": "view",
      "type": "function"
    },
    {
      "inputs": [
        {
          "internalType": "address",
          "name": "_owner",
          "type": "address"
        },
        {
          "internalType": "string",
          "name": "_title",
          "type": "string"
        },
        {
          "internalType": "string",
          "name": "_description",
          "type": "string"
        },
        {
          "internalType": "uint256",
          "name": "_target",
          "type": "uint256"
        },
        {
          "internalType": "uint256",
          "name": "_deadline",
          "type": "uint256"
        },
        {
          "internalType": "string",
          "name": "_image",
          "type": "string"
        }
      ],
      "name": "createComapin",
      "outputs": [
        {
          "internalType": "uint256",
          "name": "",
          "type": "uint256"
        }
      ],
      "stateMutability": "nonpayable",
      "type": "function"
    },
    {
      "inputs": [
        {
          "internalType": "uint256",
          "name": "compaignId",
          "type": "uint256"
        }
      ],
      "name": "donationToCompaign",
      "outputs": [],
      "stateMutability": "payable",
      "type": "function"
    },
    {
      "inputs": [],
      "name": "getCompaigns",
      "outputs": [
        {
          "components": [
            {
              "internalType": "address",
              "name": "owner",
              "type": "address"
            },
            {
              "internalType": "string",
              "name": "title",
              "type": "string"
            },
            {
              "internalType": "string",
              "name": "description",
              "type": "string"
            },
            {
              "internalType": "uint256",
              "name": "target",
              "type": "uint256"
            },
            {
              "internalType": "uint256",
              "name": "deadline",
              "type": "uint256"
            },
            {
              "internalType": "uint256",
              "name": "amountCollected",
              "type": "uint256"
            },
            {
              "internalType": "string",
              "name": "image",
              "type": "string"
            },
            {
              "internalType": "address[]",
              "name": "donators",
              "type": "address[]"
            },
            {
              "internalType": "uint256[]",
              "name": "donations",
              "type": "uint256[]"
            }
          ],
          "internalType": "struct CrowdFunding.Compaign[]",
          "name": "",
          "type": "tuple[]"
        }
      ],
      "stateMutability": "view",
      "type": "function"
    },
    {
      "inputs": [
        {
          "internalType": "uint256",
          "name": "_id",
          "type": "uint256"
        }
      ],
      "name": "getDonators",
      "outputs": [
        {
          "internalType": "address[]",
          "name": "",
          "type": "address[]"
        },
        {
          "internalType": "uint256[]",
          "name": "",
          "type": "uint256[]"
        }
      ],
      "stateMutability": "view",
      "type": "function"
    },
    {
      "inputs": [],
      "name": "numberOfCompaigns",
      "outputs": [
        {
          "internalType": "uint256",
          "name": "",
          "type": "uint256"
        }
      ],
      "stateMutability": "view",
      "type": "function"
    }
  ],
  "bytecode": "0x6080604052600060015534801561001557600080fd5b50611928806100256000396000f3fe6080604052600436106100555760003560e01c80630fa91fa91461005a57806318ed9aa6146100985780635d46f7df146100c3578063a2f6498f14610100578063cbc261d71461011c578063de4f88181461015f575b600080fd5b34801561006657600080fd5b50610081600480360381019061007c9190610ba0565b61018a565b60405161008f929190610d7b565b60405180910390f35b3480156100a457600080fd5b506100ad61029a565b6040516100ba91906110c3565b60405180910390f35b3480156100cf57600080fd5b506100ea60048036038101906100e59190611246565b610670565b6040516100f79190611336565b60405180910390f35b61011a60048036038101906101159190610ba0565b610797565b005b34801561012857600080fd5b50610143600480360381019061013e9190610ba0565b6108f4565b60405161015697969594939291906113aa565b60405180910390f35b34801561016b57600080fd5b50610174610aee565b6040516101819190611336565b60405180910390f35b6060806000808481526020019081526020016000206007016000808581526020019081526020016000206008018180548060200260200160405190810160405280929190818152602001828054801561023857602002820191906000526020600020905b8160009054906101000a900473ffffffffffffffffffffffffffffffffffffffff1673ffffffffffffffffffffffffffffffffffffffff16815260200190600101908083116101ee575b505050505091508080548060200260200160405190810160405280929190818152602001828054801561028a57602002820191906000526020600020905b815481526020019060010190808311610276575b5050505050905091509150915091565b6060600060015467ffffffffffffffff8111156102ba576102b961111b565b5b6040519080825280602002602001820160405280156102f357816020015b6102e0610af4565b8152602001906001900390816102d85790505b50905060005b600154811015610668576000806000838152602001908152602001600020905080604051806101200160405290816000820160009054906101000a900473ffffffffffffffffffffffffffffffffffffffff1673ffffffffffffffffffffffffffffffffffffffff1673ffffffffffffffffffffffffffffffffffffffff16815260200160018201805461038c9061145d565b80601f01602080910402602001604051908101604052809291908181526020018280546103b89061145d565b80156104055780601f106103da57610100808354040283529160200191610405565b820191906000526020600020905b8154815290600101906020018083116103e857829003601f168201915b5050505050815260200160028201805461041e9061145d565b80601f016020809104026020016040519081016040528092919081815260200182805461044a9061145d565b80156104975780601f1061046c57610100808354040283529160200191610497565b820191906000526020600020905b81548152906001019060200180831161047a57829003601f168201915b505050505081526020016003820154815260200160048201548152602001600582015481526020016006820180546104ce9061145d565b80601f01602080910402602001604051908101604052809291908181526020018280546104fa9061145d565b80156105475780601f1061051c57610100808354040283529160200191610547565b820191906000526020600020905b81548152906001019060200180831161052a57829003601f168201915b50505050508152602001600782018054806020026020016040519081016040528092919081815260200182805480156105d557602002820191906000526020600020905b8160009054906101000a900473ffffffffffffffffffffffffffffffffffffffff1673ffffffffffffffffffffffffffffffffffffffff168152602001906001019080831161058b575b505050505081526020016008820180548060200260200160405190810160405280929190818152602001828054801561062d57602002820191906000526020600020905b815481526020019060010190808311610619575b5050505050815250508383815181106106495761064861148e565b5b6020026020010181905250508080610660906114ec565b9150506102f9565b508091505090565b60008060008060015481526020019081526020016000209050428160040154106106cf576040517f08c379a00000000000000000000000000000000000000000000000000000000081526004016106c6906115a6565b60405180910390fd5b878160000160006101000a81548173ffffffffffffffffffffffffffffffffffffffff021916908373ffffffffffffffffffffffffffffffffffffffff160217905550868160010190816107239190611772565b50858160020190816107359190611772565b5084816003018190555060008160050181905550838160040181905550828160060190816107639190611772565b5060016000815480929190610777906114ec565b91905055506001805461078a9190611844565b9150509695505050505050565b6000806000838152602001908152602001600020905080600701339080600181540180825580915050600190039060005260206000200160009091909190916101000a81548173ffffffffffffffffffffffffffffffffffffffff021916908373ffffffffffffffffffffffffffffffffffffffff1602179055508060080134908060018154018082558091505060019003906000526020600020016000909190919091505560008160000160009054906101000a900473ffffffffffffffffffffffffffffffffffffffff1673ffffffffffffffffffffffffffffffffffffffff1634604051610887906118a9565b60006040518083038185875af1925050503d80600081146108c4576040519150601f19603f3d011682016040523d82523d6000602084013e6108c9565b606091505b5050905080156108ef57348260050160008282546108e791906118be565b925050819055505b505050565b60006020528060005260406000206000915090508060000160009054906101000a900473ffffffffffffffffffffffffffffffffffffffff169080600101805461093d9061145d565b80601f01602080910402602001604051908101604052809291908181526020018280546109699061145d565b80156109b65780601f1061098b576101008083540402835291602001916109b6565b820191906000526020600020905b81548152906001019060200180831161099957829003601f168201915b5050505050908060020180546109cb9061145d565b80601f01602080910402602001604051908101604052809291908181526020018280546109f79061145d565b8015610a445780601f10610a1957610100808354040283529160200191610a44565b820191906000526020600020905b815481529060010190602001808311610a2757829003601f168201915b505050505090806003015490806004015490806005015490806006018054610a6b9061145d565b80601f0160208091040260200160405190810160405280929190818152602001828054610a979061145d565b8015610ae45780601f10610ab957610100808354040283529160200191610ae4565b820191906000526020600020905b815481529060010190602001808311610ac757829003601f168201915b5050505050905087565b60015481565b604051806101200160405280600073ffffffffffffffffffffffffffffffffffffffff16815260200160608152602001606081526020016000815260200160008152602001600081526020016060815260200160608152602001606081525090565b6000604051905090565b600080fd5b600080fd5b6000819050919050565b610b7d81610b6a565b8114610b8857600080fd5b50565b600081359050610b9a81610b74565b92915050565b600060208284031215610bb657610bb5610b60565b5b6000610bc484828501610b8b565b91505092915050565b600081519050919050565b600082825260208201905092915050565b6000819050602082019050919050565b600073ffffffffffffffffffffffffffffffffffffffff82169050919050565b6000610c2482610bf9565b9050919050565b610c3481610c19565b82525050565b6000610c468383610c2b565b60208301905092915050565b6000602082019050919050565b6000610c6a82610bcd565b610c748185610bd8565b9350610c7f83610be9565b8060005b83811015610cb0578151610c978882610c3a565b9750610ca283610c52565b925050600181019050610c83565b5085935050505092915050565b600081519050919050565b600082825260208201905092915050565b6000819050602082019050919050565b610cf281610b6a565b82525050565b6000610d048383610ce9565b60208301905092915050565b6000602082019050919050565b6000610d2882610cbd565b610d328185610cc8565b9350610d3d83610cd9565b8060005b83811015610d6e578151610d558882610cf8565b9750610d6083610d10565b925050600181019050610d41565b5085935050505092915050565b60006040820190508181036000830152610d958185610c5f565b90508181036020830152610da98184610d1d565b90509392505050565b600081519050919050565b600082825260208201905092915050565b6000819050602082019050919050565b600081519050919050565b600082825260208201905092915050565b60005b83811015610e18578082015181840152602081019050610dfd565b60008484015250505050565b6000601f19601f8301169050919050565b6000610e4082610dde565b610e4a8185610de9565b9350610e5a818560208601610dfa565b610e6381610e24565b840191505092915050565b600082825260208201905092915050565b6000610e8a82610bcd565b610e948185610e6e565b9350610e9f83610be9565b8060005b83811015610ed0578151610eb78882610c3a565b9750610ec283610c52565b925050600181019050610ea3565b5085935050505092915050565b600082825260208201905092915050565b6000610ef982610cbd565b610f038185610edd565b9350610f0e83610cd9565b8060005b83811015610f3f578151610f268882610cf8565b9750610f3183610d10565b925050600181019050610f12565b5085935050505092915050565b600061012083016000830151610f656000860182610c2b565b5060208301518482036020860152610f7d8282610e35565b91505060408301518482036040860152610f978282610e35565b9150506060830151610fac6060860182610ce9565b506080830151610fbf6080860182610ce9565b5060a0830151610fd260a0860182610ce9565b5060c083015184820360c0860152610fea8282610e35565b91505060e083015184820360e08601526110048282610e7f565b9150506101008301518482036101008601526110208282610eee565b9150508091505092915050565b60006110398383610f4c565b905092915050565b6000602082019050919050565b600061105982610db2565b6110638185610dbd565b93508360208202850161107585610dce565b8060005b858110156110b15784840389528151611092858261102d565b945061109d83611041565b925060208a01995050600181019050611079565b50829750879550505050505092915050565b600060208201905081810360008301526110dd818461104e565b905092915050565b6110ee81610c19565b81146110f957600080fd5b50565b60008135905061110b816110e5565b92915050565b600080fd5b600080fd5b7f4e487b7100000000000000000000000000000000000000000000000000000000600052604160045260246000fd5b61115382610e24565b810181811067ffffffffffffffff821117156111725761117161111b565b5b80604052505050565b6000611185610b56565b9050611191828261114a565b919050565b600067ffffffffffffffff8211156111b1576111b061111b565b5b6111ba82610e24565b9050602081019050919050565b82818337600083830152505050565b60006111e96111e484611196565b61117b565b90508281526020810184848401111561120557611204611116565b5b6112108482856111c7565b509392505050565b600082601f83011261122d5761122c611111565b5b813561123d8482602086016111d6565b91505092915050565b60008060008060008060c0878903121561126357611262610b60565b5b600061127189828a016110fc565b965050602087013567ffffffffffffffff81111561129257611291610b65565b5b61129e89828a01611218565b955050604087013567ffffffffffffffff8111156112bf576112be610b65565b5b6112cb89828a01611218565b94505060606112dc89828a01610b8b565b93505060806112ed89828a01610b8b565b92505060a087013567ffffffffffffffff81111561130e5761130d610b65565b5b61131a89828a01611218565b9150509295509295509295565b61133081610b6a565b82525050565b600060208201905061134b6000830184611327565b92915050565b61135a81610c19565b82525050565b600082825260208201905092915050565b600061137c82610dde565b6113868185611360565b9350611396818560208601610dfa565b61139f81610e24565b840191505092915050565b600060e0820190506113bf600083018a611351565b81810360208301526113d18189611371565b905081810360408301526113e58188611371565b90506113f46060830187611327565b6114016080830186611327565b61140e60a0830185611327565b81810360c08301526114208184611371565b905098975050505050505050565b7f4e487b7100000000000000000000000000000000000000000000000000000000600052602260045260246000fd5b6000600282049050600182168061147557607f821691505b6020821081036114885761148761142e565b5b50919050565b7f4e487b7100000000000000000000000000000000000000000000000000000000600052603260045260246000fd5b7f4e487b7100000000000000000000000000000000000000000000000000000000600052601160045260246000fd5b60006114f782610b6a565b91507fffffffffffffffffffffffffffffffffffffffffffffffffffffffffffffffff8203611529576115286114bd565b5b600182019050919050565b7f54686520646561646c696e652073686f756c642062652061206461746520696e60008201527f20746865206675747572652e0000000000000000000000000000000000000000602082015250565b6000611590602c83611360565b915061159b82611534565b604082019050919050565b600060208201905081810360008301526115bf81611583565b9050919050565b60008190508160005260206000209050919050565b60006020601f8301049050919050565b600082821b905092915050565b6000600883026116287fffffffffffffffffffffffffffffffffffffffffffffffffffffffffffffffff826115eb565b61163286836115eb565b95508019841693508086168417925050509392505050565b6000819050919050565b600061166f61166a61166584610b6a565b61164a565b610b6a565b9050919050565b6000819050919050565b61168983611654565b61169d61169582611676565b8484546115f8565b825550505050565b600090565b6116b26116a5565b6116bd818484611680565b505050565b5b818110156116e1576116d66000826116aa565b6001810190506116c3565b5050565b601f821115611726576116f7816115c6565b611700846115db565b8101602085101561170f578190505b61172361171b856115db565b8301826116c2565b50505b505050565b600082821c905092915050565b60006117496000198460080261172b565b1980831691505092915050565b60006117628383611738565b9150826002028217905092915050565b61177b82610dde565b67ffffffffffffffff8111156117945761179361111b565b5b61179e825461145d565b6117a98282856116e5565b600060209050601f8311600181146117dc57600084156117ca578287015190505b6117d48582611756565b86555061183c565b601f1984166117ea866115c6565b60005b82811015611812578489015182556001820191506020850194506020810190506117ed565b8683101561182f578489015161182b601f891682611738565b8355505b6001600288020188555050505b505050505050565b600061184f82610b6a565b915061185a83610b6a565b9250828203905081811115611872576118716114bd565b5b92915050565b600081905092915050565b50565b6000611893600083611878565b915061189e82611883565b600082019050919050565b60006118b482611886565b9150819050919050565b60006118c982610b6a565b91506118d483610b6a565b92508282019050808211156118ec576118eb6114bd565b5b9291505056fea2646970667358221220612085f521d3e16f2ae11601d49633cee5d1e4508fee8ad46fad9f48c844e69c64736f6c63430008130033",
  "linkReferences": {},
  "deployedLinkReferences": {}
}